{
  "abi": [
    {
      "inputs": [
        {
          "internalType": "uint256",
          "name": "_insuredAmountETH",
          "type": "uint256"
        }
      ],
      "stateMutability": "payable",
      "type": "constructor"
    },
    {
      "inputs": [],
      "name": "amountTakenETH",
      "outputs": [
        {
          "internalType": "uint256",
          "name": "",
          "type": "uint256"
        }
      ],
      "stateMutability": "view",
      "type": "function"
    },
    {
      "inputs": [],
      "name": "insuredAmountETH",
      "outputs": [
        {
          "internalType": "uint256",
          "name": "",
          "type": "uint256"
        }
      ],
      "stateMutability": "view",
      "type": "function"
    },
    {
      "inputs": [],
      "name": "premiumETH",
      "outputs": [
        {
          "internalType": "uint256",
          "name": "",
          "type": "uint256"
        }
      ],
      "stateMutability": "view",
      "type": "function"
    },
    {
      "inputs": [],
      "name": "requester",
      "outputs": [
        {
          "internalType": "address payable",
          "name": "",
          "type": "address"
        }
      ],
      "stateMutability": "view",
      "type": "function"
    },
    {
      "inputs": [],
      "name": "take",
      "outputs": [],
      "stateMutability": "payable",
      "type": "function"
    },
    {
      "inputs": [],
      "name": "taker",
      "outputs": [
        {
          "internalType": "address payable",
          "name": "",
          "type": "address"
        }
      ],
      "stateMutability": "view",
      "type": "function"
    }
  ],
  "bytecode": "608060405260405161029038038061029083398101604081905261002291610040565b600080546001600160a01b0319163317905534600255600355610058565b600060208284031215610051578081fd5b5051919050565b610229806100676000396000f3fe6080604052600436106100555760003560e01c8063159090bd1461005a578063609af33314610064578063782b36021461008d5780638afb856f146100c5578063b61e96a5146100db578063d8fcc682146100fb575b600080fd5b610062610111565b005b34801561007057600080fd5b5061007a60045481565b6040519081526020015b60405180910390f35b34801561009957600080fd5b506001546100ad906001600160a01b031681565b6040516001600160a01b039091168152602001610084565b3480156100d157600080fd5b5061007a60035481565b3480156100e757600080fd5b506000546100ad906001600160a01b031681565b34801561010757600080fd5b5061007a60025481565b60035461012690670de0b6b3a76400006101c8565b34146101835760405162461bcd60e51b815260206004820152602260248201527f796f75206d757374207375626d69742074686520696e737572656420616d6f756044820152611b9d60f21b606482015260840160405180910390fd5b600180546001600160a01b0319163390811790915560025460405181156108fc0291906000818181858888f193505050501580156101c5573d6000803e3d6000fd5b50565b60008160001904831182151516156101ee57634e487b7160e01b81526011600452602481fd5b50029056fea2646970667358221220f663682b9b08ba2ba873c7a4be62d60206c629c6f43e201313544d83484cdc2c64736f6c63430008030033",
  "bytecodeSha1": "766aafad964d805b02671efaae805c4f91076829",
  "compiler": {
    "evm_version": "istanbul",
    "optimizer": {
      "enabled": true,
      "runs": 200
    },
    "version": "0.8.3+commit.8d00100c"
  },
  "contractName": "Tlaloc_base",
  "language": "Solidity",
  "natspec": {
    "kind": "dev",
    "methods": {},
    "version": 1
  },
  "opcodes": "PUSH1 0x80 PUSH1 0x40 MSTORE PUSH1 0x4 CALLDATASIZE LT PUSH2 0x55 JUMPI PUSH1 0x0 CALLDATALOAD PUSH1 0xE0 SHR DUP1 PUSH4 0x159090BD EQ PUSH2 0x5A JUMPI DUP1 PUSH4 0x609AF333 EQ PUSH2 0x64 JUMPI DUP1 PUSH4 0x782B3602 EQ PUSH2 0x8D JUMPI DUP1 PUSH4 0x8AFB856F EQ PUSH2 0xC5 JUMPI DUP1 PUSH4 0xB61E96A5 EQ PUSH2 0xDB JUMPI DUP1 PUSH4 0xD8FCC682 EQ PUSH2 0xFB JUMPI JUMPDEST PUSH1 0x0 DUP1 REVERT JUMPDEST PUSH2 0x62 PUSH2 0x111 JUMP JUMPDEST STOP JUMPDEST CALLVALUE DUP1 ISZERO PUSH2 0x70 JUMPI PUSH1 0x0 DUP1 REVERT JUMPDEST POP PUSH2 0x7A PUSH1 0x4 SLOAD DUP2 JUMP JUMPDEST PUSH1 0x40 MLOAD SWAP1 DUP2 MSTORE PUSH1 0x20 ADD JUMPDEST PUSH1 0x40 MLOAD DUP1 SWAP2 SUB SWAP1 RETURN JUMPDEST CALLVALUE DUP1 ISZERO PUSH2 0x99 JUMPI PUSH1 0x0 DUP1 REVERT JUMPDEST POP PUSH1 0x1 SLOAD PUSH2 0xAD SWAP1 PUSH1 0x1 PUSH1 0x1 PUSH1 0xA0 SHL SUB AND DUP2 JUMP JUMPDEST PUSH1 0x40 MLOAD PUSH1 0x1 PUSH1 0x1 PUSH1 0xA0 SHL SUB SWAP1 SWAP2 AND DUP2 MSTORE PUSH1 0x20 ADD PUSH2 0x84 JUMP JUMPDEST CALLVALUE DUP1 ISZERO PUSH2 0xD1 JUMPI PUSH1 0x0 DUP1 REVERT JUMPDEST POP PUSH2 0x7A PUSH1 0x3 SLOAD DUP2 JUMP JUMPDEST CALLVALUE DUP1 ISZERO PUSH2 0xE7 JUMPI PUSH1 0x0 DUP1 REVERT JUMPDEST POP PUSH1 0x0 SLOAD PUSH2 0xAD SWAP1 PUSH1 0x1 PUSH1 0x1 PUSH1 0xA0 SHL SUB AND DUP2 JUMP JUMPDEST CALLVALUE DUP1 ISZERO PUSH2 0x107 JUMPI PUSH1 0x0 DUP1 REVERT JUMPDEST POP PUSH2 0x7A PUSH1 0x2 SLOAD DUP2 JUMP JUMPDEST PUSH1 0x3 SLOAD PUSH2 0x126 SWAP1 PUSH8 0xDE0B6B3A7640000 PUSH2 0x1C8 JUMP JUMPDEST CALLVALUE EQ PUSH2 0x183 JUMPI PUSH1 0x40 MLOAD PUSH3 0x461BCD PUSH1 0xE5 SHL DUP2 MSTORE PUSH1 0x20 PUSH1 0x4 DUP3 ADD MSTORE PUSH1 0x22 PUSH1 0x24 DUP3 ADD MSTORE PUSH32 0x796F75206D757374207375626D69742074686520696E737572656420616D6F75 PUSH1 0x44 DUP3 ADD MSTORE PUSH2 0x1B9D PUSH1 0xF2 SHL PUSH1 0x64 DUP3 ADD MSTORE PUSH1 0x84 ADD PUSH1 0x40 MLOAD DUP1 SWAP2 SUB SWAP1 REVERT JUMPDEST PUSH1 0x1 DUP1 SLOAD PUSH1 0x1 PUSH1 0x1 PUSH1 0xA0 SHL SUB NOT AND CALLER SWAP1 DUP2 OR SWAP1 SWAP2 SSTORE PUSH1 0x2 SLOAD PUSH1 0x40 MLOAD DUP2 ISZERO PUSH2 0x8FC MUL SWAP2 SWAP1 PUSH1 0x0 DUP2 DUP2 DUP2 DUP6 DUP9 DUP9 CALL SWAP4 POP POP POP POP ISZERO DUP1 ISZERO PUSH2 0x1C5 JUMPI RETURNDATASIZE PUSH1 0x0 DUP1 RETURNDATACOPY RETURNDATASIZE PUSH1 0x0 REVERT JUMPDEST POP JUMP JUMPDEST PUSH1 0x0 DUP2 PUSH1 0x0 NOT DIV DUP4 GT DUP3 ISZERO ISZERO AND ISZERO PUSH2 0x1EE JUMPI PUSH4 0x4E487B71 PUSH1 0xE0 SHL DUP2 MSTORE PUSH1 0x11 PUSH1 0x4 MSTORE PUSH1 0x24 DUP2 REVERT JUMPDEST POP MUL SWAP1 JUMP INVALID LOG2 PUSH5 0x6970667358 0x22 SLT KECCAK256 0xF6 PUSH4 0x682B9B08 0xBA 0x2B 0xA8 PUSH20 0xC7A4BE62D60206C629C6F43E201313544D83484C 0xDC 0x2C PUSH5 0x736F6C6343 STOP ADDMOD SUB STOP CALLER ",
  "sha1": "fe5cd2acba784063174d9bd279c166ffc6e9682a",
  "source": "pragma solidity ^0.8.1;\n\ncontract Tlaloc_base {\n\n    address payable public requester;\n    address payable public taker;\n//    string public location;\n//    uint public precLowMM;\n//    uint public precHighMM;\n    uint public premiumETH;\n    uint public insuredAmountETH;\n    uint public amountTakenETH;\n//    uint public timeDateStart;\n//    uint public timeDateEnd;\n//    uint public expirationDate;\n\n    constructor (uint _insuredAmountETH) payable {\n        //expirationDate = block.timestamp + 6;\n        requester = payable(msg.sender);\n        premiumETH = msg.value;\n        insuredAmountETH = _insuredAmountETH;\n    }\n\n\n    function take() external payable{\n        require(msg.value == insuredAmountETH*10**18, 'you must submit the insured amount');\n        taker = payable(msg.sender);\n        amountTakenETH == msg.value;\n        taker.transfer(premiumETH);\n    }\n\n}",
  "sourcePath": "contracts/Tlaloc_base.sol",
  "type": "contract"
}